:020000040001F9
:1000000008680020490301005B030100511601004C
:100010005F0301006103010063030100E070F9DF89
:100020008F9E939B06999697020100005D02010046
:1000300067030100ECB30100E50201003503010094
:100040006D0301006D0301006D0301006D030100EC
:100050006D0301006D0301006D0301006D030100DC
:10006000514D01006D0301006D0301006D0301009E
:100070006D0301006D0301006D0301006D030100BC
:100080006D0301006D0301006D0301006D030100AC
:100090006D0301006D030100092901006D030100DA
:1000A0006D0301006D0301006D0301006D0301008C
:1000B0006D0301006D0301006D0301006D0301007C
:1000C0006D0301006D030100292901002D290100A4
:1000D000312901006D0301006D0301006D03010072
:1000E0006D0301006D0301006D0301006D0301004C
:1000F0006D0301006D0301006D0301006D0301003C
:100100006D0301006D0301006D0301006D0301002B
:1001100000F002F800F05AF80AA090E8000C8244BF
:100120008344AAF10107DA4501D100F04FF8AFF29C
:10013000090EBAE80F0013F0010F18BFFB1A43F0C5
:100140000103184748CA000068CA00000A444FF07B
:10015000000C10F8013B13F0070408BF10F8014B26
:100160001D1108BF10F8015B641E05D010F8016B6B
:10017000641E01F8016BF9D113F0080F1EBF10F8CF
:10018000014BAD1C0C1B09D16D1E58BF01F801CBF2
:10019000FAD505E014F8016B01F8016B6D1EF9D575
:1001A0009142D6D37047000000230024002500268A
:1001B000103A28BF78C1FBD8520728BF30C148BFCA
:1001C0000B6070471FB51FBD10B510BD00F0D2FA0F
:1001D000114603B404F0A8FE03BCFFF7F3FF00F0E0
:1001E00001FB00F0ECFA03B4FFF7EEFF03BC00F0F4
:1001F000EFFA000080F309887047EFF30980704739
:10020000684680F3098804480078C00714BF0220BC
:10021000032080F31488704724BE0100DFF818C063
:10022000EFF305831B0618BF6047EFF31483DB076A
:1002300008BF604700DF704729790100DFF818C068
:10024000EFF305831B0618BF6047EFF31483DB074A
:1002500008BF604700DF7047357B0100EFF309807E
:10026000816911F8021C39BB90E80F10E047EFF3E9
:10027000098C194B93E80600914218D059B10CB47F
:100280004FF0010381F821302CE9F00FC1F824C0B0
:1002900007F0E4FE0CBC1A60D2F824C0BCE8F00FF2
:1002A00092F821308CF309881BB192F82000CCF829
:1002B00000006FF0020E704710B5084A12689142B4
:1002C00009D8074C54F8214090E80F10A047EFF3ED
:1002D000098C8CE80F0010BD58040020E0070100D5
:1002E000E007010007F0A6FD114B93E806009142DC
:1002F0001BD00CB44FF0000381F82130EFF3098CD0
:100300002CE9F00FC1F824C007F0A8FE0CBC1A605D
:10031000D2F824C0BCE8F00F8CF3098892F82130A1
:100320001BB192F82030CCF800306FF0020E70470D
:100330005804002007F054FFD6E7000006F046FE00
:1003400007F04EFFD0E700000C4880470C4880477C
:100350000C48004730BFFFF7FDFFFEE7FEE7FEE772
:10036000FEE7FEE7FEE7FEE7FEE7FEE7FEE700004A
:1003700005480649044A064B70470000211C01004D
:10038000952701001101010008660020086800207F
:100390000866002000487047A865002040EA010375
:1003A00010B59B070FD1042A0DD310C808C9121F1E
:1003B0009C42F8D020BA19BA884201D9012010BD58
:1003C0004FF0FF3010BD1AB1D30703D0521C07E025
:1003D000002010BD10F8013B11F8014B1B1B07D189
:1003E00010F8013B11F8014B1B1B01D1921EF1D1FA
:1003F000184610BD10B5431C02E010F8011B71B186
:100400008107FAD14FF0013202C88C1A8C4314EAEA
:10041000C211F9D0C01A0A0603D0C01E10BDC01AFE
:1004200010BD0A0401D0801E10BD0902FCD0401E80
:1004300010BD40EA010370B59B072ED14FF0013685
:10044000042A2AD308C810C99D1B9D43121F15EA10
:10045000C61517D0D8B2E1B2401A50EA056110D1E2
:1004600098B2A1B2401A50EA05410AD123F07F4068
:1004700024F07F41401A50EA052102D1180EA0EB6A
:10048000146070BDA342DBD018BA21BA884201D9EA
:10049000012070BD4FF0FF3070BD0AB9002070BD63
:1004A00010F8013B11F8014B63B1A3420AD1521E6F
:1004B00008D010F8013B11F8014B1BB1A34201D148
:1004C000521EEDD1181B70BD421E12F8013F002BC9
:1004D000FBD111F8013B002B02F8013BF9D1704729
:1004E000032A40F2308010F0030C00F0158011F860
:1004F000013BBCF1020F624498BF11F801CB00F838
:10050000013B38BF11F8013BA2F1040298BF00F88B
:1005100001CB38BF00F8013B11F0030300F0678006
:10052000083AC0F0088051F8043B083A51F804CB6F
:10053000A0E80810F5E7121D5CBF51F8043B40F835
:10054000043BAFF30080D20724BF11F8013B11F840
:1005500001CB48BF11F8012B24BF00F8013B00F884
:1005600001CB48BF00F8012B7047431A28BF9A42BD
:100570007FF6B6AF032A1044114440F2268010F0F3
:10058000030F1EBF11F8013D521E00F8013D10F08F
:10059000030F7FF4F6AF11F0030300F0C180083AB7
:1005A000C0F00B8051F8043D083A51F804CD40F8F2
:1005B000043D40F804CDFFF7F3BF121D5CBF51F8B6
:1005C000043D40F8043DAFF30080D20724BF11F88A
:1005D000013D11F801CD48BF11F8012C24BF00F8EE
:1005E000013D00F801CD48BF00F8012C704710B55F
:1005F000203AC0F00B80B1E81850203AA0E818501B
:10060000B1E81850A0E81850BFF4F5AF5FEA027CDB
:1006100024BFB1E81850A0E8185044BF18C918C04A
:10062000BDE810405FEA827C24BF51F8043B40F8EB
:10063000043B08BF7047D20728BF31F8023B48BFD0
:1006400011F8012B28BF20F8023B48BF00F8012B0E
:10065000704702F0FF0343EA032242EA024200F03D
:1006600002B84FF000020429C0F0128010F0030C11
:1006700000F01B80CCF1040CBCF1020F18BF00F895
:10068000012BA8BF20F8022BA1EB0C0100F00DB844
:100690005FEAC17C24BF00F8012B00F8012B48BFA2
:1006A00000F8012B70474FF0000200B51346944646
:1006B0009646203922BFA0E80C50A0E80C50B1F1BA
:1006C0002001BFF4F7AF090728BFA0E80C5048BFCE
:1006D0000CC05DF804EB890028BF40F8042B08BF6C
:1006E000704748BF20F8022B11F0804F18BF00F868
:1006F000012B7047704770477047431A28BF9A42D2
:100700007FF675AF104410F0030F11441EBF11F8AF
:10071000013D521E00F8013D10F0030F7FF4F6AFCB
:10072000103AC0F00A8010B531E91850103A20E9AB
:100730001850BFF4F9AFBDE81040530724BF31E9AA
:10074000081020E9081044BF51F8043D40F8043D6A
:1007500012F0030F08BF7047D20728BF31F8023DDF
:1007600048BF11F8012C28BF20F8023D48BF00F80F
:10077000012C70477546FFF70DFEAE460500694631
:10078000534620F00700854618B020B5FFF7F0FD6E
:10079000BDE820404FF000064FF000074FF0000882
:1007A0004FF0000B21F00701AC46ACE8C009ACE803
:1007B000C009ACE8C009ACE8C0098D46704710B567
:1007C0000446AFF300802046BDE81040FFF70BBDA4
:1007D00001491820ABBEFEE726000200704700006A
:1007E0000000000010B501F0ABFF00F004F8BDE818
:1007F000104006F06BB900207047000030B5224B66
:10080000186800F40062186840F4006018601E4820
:100810004C3001684904FCD41C48C16841F02001F7
:10082000C160C16841F40011C160174C18342168DF
:10083000856AC90A61F308058562416A41F00401CD
:100840004162416A41F001014162416A41F0100197
:100850004162C1688902FCD5416A21F0020141620E
:10086000C16821F02001C160416A2568C90D61F3AA
:10087000D32525601AB9196821F400611960416A0D
:1008800021F00101416230BD300A004000F001401A
:100890002DE9F04102787F2A03D0BDE8F04100F055
:1008A00089B801F8012B447801F8014B861C0D46EC
:1008B0004FF0021708E02946304600F07BF8074465
:1008C00006EB104615FA80F5641EF4D23846BDE8F2
:1008D000F081000070B500240B462246092841D063
:1008E0000ADC2D4A0928116953D2DFE800F0525280
:1008F00015181C23282E31004021FC2849D004DC87
:10090000F02835D0F12844D134E0FD2841D0FE282C
:100910003CD0FF283DD135E0184620A11CE01C4604
:1009200005F036FF21E00624224621491846FFF74C
:10093000D7FD2EE0184699B1D1F8A41103E018466E
:1009400071B1D1F8A81139B90AE01846D16FFAE7A8
:100950001846D2F88010F6E706F0CCFF044618E0FF
:10096000002416E00C4605F01BFF01462046F3E785
:1009700031200CE01970422058700F209870DA7006
:10098000042406E019705A70022402E00420187052
:100990000124204670BD0000ECB301004441504CDE
:1009A000696E6B20434D5349532D44415000000064
:1009B00070B401002DE9F8430278A2F180031F2BE7
:1009C00003D800F011F9BDE8F883A2F1A0035E2B73
:1009D00002D800F0A1F9F6E70A704C1C10F801CB20
:1009E00000250127FF217A4B7A4ADFF8EC914FF07E
:1009F0000116BCF11E0F70D2DFE80CF00F171E2A93
:100A00008F98B3E6CF303FE6E6E6E6E64347566624
:100A1000748A8DE6E6E6E6E6E6700078611CFFF78C
:100A200059FF207000F10210CDE7007818B30128BB
:100A300021D021701846B5E0057825B1012D03D0ED
:100A4000002525702EE00125177000F00DFFF8E756
:100A5000157000F035FE25703846A3E001885F4828
:100A60005F4A0068B0FBF2F00322801CB0FBF2F09A
:100A70004843401EFDD12570DCE7657025700220DB
:100A800090E0214600F09AFC8CE086780388C078DC
:100A900066F31F43534E53EA00603CD0906001F070
:100AA00031FECEE730467DE010F8016B0EB94FF411
:100AB00080760146304601F0EFFDF61D2570F00806
:100AC000000400F101106DE0007800F00301491C02
:100AD0001177C0F380005077B3E775E0214600F04E
:100AE0008BF95FE021700122144610F8013B0AE007
:100AF00010F8011B11F03F0100D14021C91DC908A8
:100B00000A440844521C5B1EF2D244EA024049E007
:100B100000782170D4E72170C4E701781174B0F82F
:100B200001109182B0F80300D0824BE01278214688
:100B3000012A13D00646401C10F8012B42B110F8D0
:100B4000013B9C0701D5DB0600D5001D521EF6D1E6
:100B5000801B0D7000044D70801C23E000F0CAF96A
:100B600020E0064610782146012809D00D704D700E
:100B7000A5700321F078800707D541F4802011E0AB
:100B8000304600F083FB0146F4E7B6F801004FF46D
:100B9000802202EB8040084304E01278012A04D04E
:100BA0002170484600F101100DE7C278B0F801103D
:100BB000007962F31F4141EA00600090694600201D
:100BC00001F006F92570ECE704F8011C3046FAE65E
:100BD000010002007C050020010005002003002028
:100BE00040420F00010004002DE9FC47027801F8A3
:100BF000012B0D464FF0011410F8011B0022670075
:100C0000803906464FF0010804F101090E2975D21A
:100C1000DFE801F007141F2E3C74747447535D62C3
:100C2000667705F0B5FD0646FFF7E4FBC4B22C700D
:100C3000681C22463146FFF753FC23E00724684630
:100C400002F016F8224669462846FFF749FC304C68
:100C500054E0684602F00CF830680090684602F0F4
:100C600027F8002002F09AF885F80080294C45E02A
:100C70003E21681C09F088F8040002D0012005F02C
:100C800039FF2C7004F58034A41C37E03778701CD1
:100C9000394609F0EFF8012005F02CFF85F80080B7
:100CA00028E085F80080307820B1012802D02A7031
:100CB0003C4623E006F0A0F8FAE785F8008004F04F
:100CC00099FA10B9022008F05BFD4C4616E0307826
:100CD00007F0DAFC2870EBE707F0A4FC2870F4E7D3
:100CE00016F8017B012005F015FF3946304607F064
:100CF0006DFD287004EB074404F101142046BDE8A3
:100D0000FC872A70307800B1012005F0B5FACFE7F2
:100D10000900010002000500FF2008704FF00110DB
:100D200070470000F0B52C4D2C492D4E2868DFF897
:100D3000B4C001EB800202F0704202EBC0103268D6
:100D4000002400EB82006044C0F80048264A106886
:100D500001EB800303F0704303EBC010234B1F68CB
:100D600000EB87006044C0F80048214C214F4FF051
:100D7000010E206801EB800101F0704101EBC01011
:100D8000396800EB81006044C0F800E82868134D22
:100D9000C03D05EB8000D0F880C031788E000F2177
:100DA00001FA06F62CEA060CC0F880C0106805EBC4
:100DB000800050F8802F1B789B0001FA03F39A43C0
:100DC0000260206805EB800050F8802F3B789B0084
:100DD00099408A430260F0BD10030020C0A000408B
:100DE0001403002000101402080300200C0300204C
:100DF000180300201C0300202DE9F05F002201F8F9
:100E0000012B012510F8019B8B46AA46044661E0A0
:100E100014F8017B17F03F0000D14020C01DC60828
:100E200038063048006825D52F4901EB8003D3F8F8
:100E300080C02E494FF00F0809688A0008FA02F8AE
:100E40002CEA080C4FF0040808FA02F84CEA080CE7
:100E5000C3F880C0244B0022C03303EB800303F0AF
:100E6000704303EBC01000EB810021490844C0F837
:100E700000280EE081001C48014451F8802F1B48D7
:100E80000F230078800083409A43052383401A4350
:100E90000A605A462146384600F02AFFB9F1000F91
:100EA00010D11048006881000F48014451F8802F8C
:100EB0000E480F230078800083409A430523834027
:100EC0001A430A60380602D5B344B24401E0344400
:100ED00035446D1CB9F101099AD24AEA0540BDE8D2
:100EE000F09F00000803002000A000400C03002039
:100EF000001014022DE9F04F87B005460590002040
:100F0000DFF880A3CDE901018C1C8AF80000039072
:100F10006978AD1C07465FEA010871D015F8016BCE
:100F2000B1076ED5F7B3DFF860B306F01100012802
:100F3000BBF8149007D0574669460E2000F048FFD2
:100F400002280ED013E06946304600F041FF022827
:100F50000ED1B9F1010903D39AF800100029F2D09B
:100F600040E1B9F1010902D339780029E4D0002722
:100F70000128F5D1009904F8011B0099090A04F829
:100F8000011B0099090C04F8021B0099090E04F8D2
:100F9000011C3FB131060ED5DBF80C1004F8011B23
:100FA0000A0A00E007E004F8012B0A0C04F8022BFF
:100FB000090E04F8011CF10652D5A97835F8030B87
:100FC00061F31F4015F8011B40EA01600490AE4830
:100FD000B0F816B0F00715D0AB48B0F81490002167
:100FE000304600F0F5FE022802D00128B8D109E011
:100FF000B9F10109B4D39AF800100029EFD0F1E05B
:1010000011E187E0A048B0F814906946304600F03E
:10101000DFFE022802D0012816D107E0B9F101094C
:1010200012D39AF800100029EFD00DE09649009AEB
:1010300089691140049A914206D0BBF1010B03D398
:101040009AF800100029DDD08F49009A8969114073
:10105000049A914201D040F01000012817D157E0C6
:10106000DFF824B2F107BBF8149022D007BB0021AF
:10107000304600F0ADFE022802D0012807D107E07B
:10108000B9F1010903D39AF800100029EFD0A9E0C3
:1010900031060CD5DBF80C1004F8011B0A0A04F821
:1010A000012B0A0C04F8022B090E04F8011C01277D
:1010B0002EE06946304600F08BFE022802D001285F
:1010C00007D107E0B9F1010903D39AF8001000290C
:1010D000EFD087E031060CD5DBF80C1004F8011BCB
:1010E0000A0A04F8012B0A0C04F8022B090E04F872
:1010F000011C009904F8011B0099090A04F8011B5E
:101100000099090C04F8021B0099090E04F8011C4F
:10111000002159E01FB35C48B0F8149069460E20D6
:1011200000F056FE022802D001285BD107E0B9F199
:10113000010957D39AF800100029EFD052E0009827
:1011400004F8010B0098000A04F8010B0098000C49
:1011500004F8020B0098000E04F8010C0027A9788F
:1011600035F8030B61F31F4015F8011B40EA0160DD
:101170000090B10603D544498861012025E0DFF8DD
:1011800008B1BBF814906946304600F021FE0228F1
:1011900002D0012826D107E0B9F1010922D39AF83B
:1011A00000100029EFD01DE031060CD5DBF80C1043
:1011B00004F8011B0A0A04F8012B0A0C04F8022B9C
:1011C000090E04F8011C012103910199491C0191A8
:1011D0009AF8001031B9A8F101015FEA01087FF423
:1011E0009DAE0CE0B8F1000F09D015F8011B8A077D
:1011F00001D5C90600D52D1DA8F10108F2E7012887
:1012000032D10FB320485746868A69460E2000F037
:10121000DFFD022802D0012826D105E0761E23D367
:1012200039780029F1D01FE0009904F8011B0099DA
:10123000090A04F8011B0099090C04F8021B009923
:10124000090E04F8011C0FE0039969B10E485746D6
:10125000868A00210E2000F0BBFD022804D1761EF4
:1012600002D339780029F4D0DDE901121170029916
:1012700048700298211A059807B0281A41EA0040E0
:10128000BDE8F08F000000207C0500202DE9F84F1C
:101290000026DFF82081054630468A46CF1C88F8B4
:1012A0000060B5F80140ED1C002C77D015F8019BCB
:1012B000DFF804B15FEA89715FD55FEAC97139D09F
:1012C000BBF814500021484600F082FD022802D0ED
:1012D000012863D12EE06D1E60D398F8001000291C
:1012E000F0D05BE024B95FEAC97001D04FF00E097D
:1012F000BBF814506946484600F06AFD022802D047
:1013000001284BD106E06D1E48D398F80010002943
:10131000F0D043E0009907F8011B0099090A07F88B
:10132000011B0099090C07F8021B0099090E07F828
:10133000011C761C641ED5D230E0A97835F8030B69
:1013400061F31F4015F8011B40EA016000901A4844
:10135000B0F814806946484600F03AFD022802D0F1
:1013600001281BD107E0B8F1010817D39BF8001042
:101370000029EFD012E0761C00E0C346641EDCD2E8
:101380000D485D46848A00210E2000F021FD0228D0
:1013900004D1641E02D329780029F4D08AF80060B1
:1013A000320A8AF801208AF80200A7EB0A00BDE899
:1013B000F88F0000000000207C0500202DE9F35F7D
:1013C0000578447802794188407962F31F4141EA07
:1013D0000066E0074FF001014FF0000807D02E48EB
:1013E000EA07006801D0016001E0C0F80080A007B2
:1013F00005D52A48AA0700D44146006801602006A6
:1014000003D52749E80909680860DFF898A0DFF8E4
:1014100098B0DFF8989066B32548864200D9064612
:1014200001F062FA0746E00704D0DAF8000000682D
:10143000A84219D1A00705D5DBF800000068B0EB81
:10144000550F11D1600702D5B8EB950F0CD1A0064E
:1014500002D5B8EB551F07D120060AD5D9F80000F0
:101460000068B0EBD51F04D001F03EFAC01BB042BB
:10147000D9D3DAF800000068DBF80010096840EA08
:101480004100D9F80010096840EAC11001990870BC
:101490000848BDE8FC9F0000F4020020FC02002088
:1014A00004030020F0020020F802002000030020C6
:1014B000C0C62D0001000600094910B500220A70BF
:1014C000084888600A7464238B82CA8201238A6177
:1014D0000B774A7701F016F9BDE81040FFF722BC00
:1014E0007C050020404B4C000078832805D08428E0
:1014F00003D08C2801D001207047002070472DE9CF
:10150000F0410446D0F808011E4615460F46002853
:1015100035D00846FFF7E8FF10B1012005F0F2FAD8
:10152000402D00DD4025D4F808012A46401EC4F8AD
:101530000801D4F81001394604EB8010FEF7D0FF03
:10154000D4F8100104EB80113846FFF7A1F9D4F864
:10155000101104EB4101A1F80001D4F8100104EBD3
:101560008010306094F81001401C00F00300C4F8B3
:101570001001D4F80C01401CC4F80C010120BDE896
:10158000F081D0F80C31E3B15B1EC0F80C31D0F81B
:10159000143100EB83130B60D0F8141100EB410100
:1015A000B1F80011116090F81411491C01F0030109
:1015B000C0F81411D0F80811491CC0F80811012016
:1015C0007047002070470022C0F810210421C0F8A5
:1015D0001421C0E94212704770B5054600F030F89A
:1015E0000028FBD1144C606A20F002006062A06801
:1015F00020F0704040F00050A060A06820F47F40D0
:1016000040F4AA40A0602560A06840F00400A060FB
:1016100000F016F80028FBD1A06808490840A06037
:10162000606A800705D5606A20F0020060620120D0
:1016300070BD002070BD000000200040FF00FF0FC3
:101640000248806800F0070070470000002000405A
:1016500003F0C0FB10B5FFF7F3FF08B1012010BD88
:101660000548016D41F000510165016D41F4805163
:101670000165002010BD0000002000401CB507F0EF
:1016800015FB00281BD09E208DF80000E7208DF868
:1016900001006946102000F0FFFF07F007FB00285B
:1016A0000DD000208DF800006946082000F0F4FFFE
:1016B00001A9002007F08EFA012800D000201CBDEF
:1016C000F0B52C4B2C49DFF8B8C01868002201EBAC
:1016D000800404F0704404EBC010284C256800EB33
:1016E00085006044C0F80028264D286801EB80067C
:1016F00006F0704606EBC010234E376800EB8700FB
:101700006044C0F80028214F386801EB800101F0E7
:10171000704101EBC0101E49D1F800E000EB8E00D3
:101720006044C0F800281868134BC03B03EB8000EE
:10173000D0F880C0227894000F2202FA04F42CEA38
:10174000040CC0F880C0286803EB800050F8804F7C
:101750003578AD0002FA05F5AC430460386803EB58
:10176000800050F8803F097889008A4093430360E5
:10177000F0BD000010030020C0A0004014030020B2
:1017800000101402080300200C030020180300209E
:101790001C030020F0B52C4B2C49DFF8B8C01868AA
:1017A000002201EB800404F0704404EBC010284CCC
:1017B000256800EB85006044C0F80028264D2868A5
:1017C00001EB800606F0704606EBC010234E37682A
:1017D00000EB87006044C0F80028214F386801EB17
:1017E000800101F0704101EBC0101E49D1F800E00A
:1017F00000EB8E006044C0F800281868134BC03B13
:1018000003EB8000D0F880C0227894000F2202FA07
:1018100004F42CEA040CC0F880C0286803EB8000B4
:1018200050F8804F3578AD0002FA05F5AC430460FE
:10183000386803EB800050F8803F097889008A40BF
:1018400093430360F0BD000010030020C0A00040DF
:101850001403002000101402080300200C030020D1
:10186000180300201C0300202DE9F04F6448016894
:10187000012201B90260634E634B306803EB8001C3
:1018800001F0704101EBC01060490C6800EB84006E
:101890005F4C2044C0F800285E4DDFF87CB128681A
:1018A00003EB800707F0704707EBC017DBF8000079
:1018B00007EB80002044C0F80028DFF860E1DEF884
:1018C000000003EB800707F0704707EBC017544890
:1018D000006807EB80002044C0F800284A4C3268BA
:1018E000C03C04EB820050F8807F0E684FF00F0C74
:1018F000B1000CFA01F827EA08074FF0050A0AFAC6
:1019000001F847EA08070760296804EB810081466F
:10191000D0F88070DBF80050A8000CFA00F827EA35
:1019200008070AFA00F847EA0807C9F88070DEF8E5
:10193000000004EB8007B946D7F88080384C246853
:10194000A7000CFA07FC28EA0C084FF0020C0CFA6E
:1019500007FC48EA0C08C9F880802B4FDFF8C490D8
:10196000C03707EB820C0CF0704C0CEBC21C0CEB7C
:10197000860808EB090CDFF8B080C8F800C003EB5C
:10198000820C0CF0704C0CEBC21202EB8606274A5C
:10199000DFF89CC01644CCF8006007EB810606F027
:1019A000704606EBC11606EB850C0CEB0906DFF85A
:1019B00084C0CCF8006003EB810606F0704606EBAD
:1019C000C11101EB85011C4D1144296007EB800119
:1019D00001F0704101EBC01101EB840505EB090139
:1019E000164D296003EB800101F0704101EBC0103E
:1019F000134900EB840010440860BDE8F08F00003C
:101A00005804004010030020C0A000401403002030
:101A100000101402080300200C030020180300200B
:101A20001C03002000301402F002002000181402F1
:101A3000F4020020F8020020FC0200200003002035
:101A4000040300202DE9F04F64480168012201B928
:101A50000260634E634B306803EB800101F070411C
:101A600001EBC01060490C6800EB84005F4C20441F
:101A7000C0F800285E4DDFF87CB1286803EB8007D2
:101A800007F0704707EBC017DBF8000007EB80009A
:101A90002044C0F80028DFF860E1DEF8000003EB26
:101AA000800707F0704707EBC0175448006807EB42
:101AB00080002044C0F800284A4C3268C03C04EB47
:101AC000820050F8807F0E684FF00F0CB1000CFAC6
:101AD00001F827EA08074FF0050A0AFA01F847EA71
:101AE00008070760296804EB81008146D0F8807000
:101AF000DBF80050A8000CFA00F827EA08070AFAF9
:101B000000F847EA0807C9F88070DEF8000004EB27
:101B10008007B946D7F88080384C2468A7000CFAB3
:101B200007FC28EA0C084FF0020C0CFA07FC48EA04
:101B30000C08C9F880802B4FDFF8C490C03707EB42
:101B4000820C0CF0704C0CEBC21C0CEB860808EB02
:101B5000090CDFF8B080C8F800C003EB820C0CF071
:101B6000704C0CEBC21202EB8606274ADFF89CC0D1
:101B70001644CCF8006007EB810606F0704606EBD1
:101B8000C11606EB850C0CEB0906DFF884C0CCF817
:101B9000006003EB810606F0704606EBC11101EB15
:101BA00085011C4D1144296007EB800101F0704153
:101BB00001EBC01101EB840505EB0901164D29600D
:101BC00003EB800101F0704101EBC010134900EB01
:101BD000840010440860BDE8F08F00005804004005
:101BE00010030020C0A000401403002000101402C5
:101BF000080300200C030020180300201C03002011
:101C000000301402F002002000181402F402002038
:101C1000F8020020FC020020000300200403002042
:101C2000094801220260094B1A600948D0F80011E6
:101C3000C903FBD5D0F8001141F00101C0F8001133
:101C40001A60002070470000040400400037004084
:101C5000003000402DE9F04107460C46154690073C
:101C600002D1FFF7EDFC10B10120BDE8F0811F4E5D
:101C7000B06820F0704040F00050B06010E0376075
:101C800001CD3063B06840F40030B060B06840F01F
:101C90000100B060FFF7D4FC0028FBD1241F3F1DDA
:101CA000042CECD29CB12B684FF0FF31FF2063EA8B
:101CB000000211400002641EF9D137603163B06840
:101CC00040F40030B060FFF7BBFC0028FBD1B068E7
:101CD00020F07040B060706A800704D5706A20F010
:101CE00002007062C0E70020BFE700000020004053
:101CF0002DE9F00710F03F0308BF402310F0800FDC
:101D00002F4DDFF8C0C04FF000094FF001062CD076
:101D1000002B12BFDFF8B0A0BDE8F0077047002429
:101D200008212F6811E0401EFDD1DAF80000D0F83C
:101D300000803E60DCF80400401EFDD1600840EAEF
:101D4000C814491EA3F1010306D0002B1CBFC7F81D
:101D50000090DCF80400E6D124FA01F002F8010B4F
:101D6000002BDCD1BDE8F0077047002B12BFDFF875
:101D70005C80BDE8F007704711F8012B082414E0DF
:101D8000D8F8007002F0010038602F68C7F80090A2
:101D9000DCF80400401EFDD13E60DCF80400401E6B
:101DA000FDD152085B1E641E04D0002BE8D1BDE8B3
:101DB000F0077047002BDFD1BDE8F0077047000047
:101DC000F40200207C050020F8020020FC02002024
:101DD000034A52780AB100F005B800F0D3B9000008
:101DE0007C0500202DE9F04FDFF870930123D9F82E
:101DF00000201360DFF868E34FF00008DEF80020F1
:101E0000C2F800801360D9F800C000F00102CCF8DD
:101E10000020DEF80020C2F800801360D9F80040EE
:101E2000420802F0010CC4F800C0DEF800C0CCF893
:101E30000080CCF8003000EB020CD9F8005082088A
:101E400002F001042C60DEF80040C4F8008023603A
:101E50009444D9F80050C20802F001042C60DEF866
:101E60000040C4F8008023606244D9F800C002F04A
:101E70000102CCF80020DEF80020C2F800801360D8
:101E8000D9F80020C2F80080DEF80020C2F80080F7
:101E90001360D9F800201360DEF80020C2F800803B
:101EA0001360B04A12684FEA820C0CF1804404F5CA
:101EB0002044D4F88060DFF8B0C20F27DCF800C0FF
:101EC0004FEA8C05AF40BE43042707FA05F53543BA
:101ED000C4F88050A54C04EB820404F0704404EB79
:101EE000C21202EB8C0202F1047202F58222C2F8E5
:101EF0000088DFF87CA29AF81C20002A18BFDEF8C0
:101F000000C005D0CCF80080CCF80030521EF9D1CA
:101F1000DEF80020C2F80080DFF858B2DBF800C01D
:101F2000DCF800C01360C2F80080DBF800402468D1
:101F300013604CEA440CC2F80080DBF800402468CF
:101F400013604CEA840CBCF1010F25D0BCF1020FE8
:101F500018BFBCF1040F7DD09AF81C00213004D0CA
:101F6000C2F800801360401EFAD17E4800688000ED
:101F700000F1804000F52040D0F880407A490F22DF
:101F8000097889008A409443052202FA01F121432D
:101F9000C0F8801000F0DBB810F0020F41D000262E
:101FA00035462024C2F80080DBF800703F681360DB
:101FB00076083D4446EAC776641EF3D1C2F8008035
:101FC000DBF800402468136085EA040212F0010F78
:101FD00018BF4FF0080C002918BF0E609AF81C10AB
:101FE000002918BFDEF8002005D000BFC2F800802D
:101FF0001360491EFAD15B490968890001F18041EB
:1020000001F52041D1F88050574A0F2412789200F0
:102010009440A543052404FA02F22A43C1F8802023
:1020200039E09AF81C4024B1C2F800801360641EA5
:10203000FAD14C4A1268920002F1804202F5204225
:10204000D2F88060484C0F252478A400A540AE4308
:10205000052500E03CE005FA04F43443C2F8804072
:102060000968002220247746D9F8006001F00105B4
:1020700035603D68C5F800802B600A444908641E3D
:10208000F2D102F00101D9F800201160DEF8001051
:10209000C1F800800B6010F0800F0AD03648374935
:1020A0000068B0FBF1F036494968B1FBF0F0CAF8BE
:1020B0000C009AF81000E0B3D9F80010C1F80080C5
:1020C000DEF80010C1F800800B60401EFAD13EE03F
:1020D0009AF81D1000291CBF10F0020F212104D016
:1020E000C2F800801360491EFAD19AF81C1021B181
:1020F000C2F800801360491EFAD11A4909688900A4
:1021000001F1804101F52041D1F88050164A0F2499
:10211000127892009440A543052404FA02F22A435F
:10212000C1F880209AF81D1019B110F0020F0ED1DD
:1021300000E00CE0D9F80000C0F80080DEF80010E4
:10214000212000BFC1F800800B60401EFAD1D9F8F1
:10215000000003600CF0FF00BDE8F08FFC020020DF
:10216000F4020020080300200C030020C0A000405F
:102170007C050020F80200202003002040420F00D0
:10218000001000E02DE9F04FFF4D002601232A68E2
:102190001360FE4CB44627683E60DFF8F4E3DEF8D7
:1021A0000420521EFDD13B60DEF80420521EFDD1FA
:1021B0002F6800F001023A602768C7F800C0DEF817
:1021C0000420521EFDD13B60DEF80420521EFDD1DA
:1021D0003718D5F80080460806F00102C8F800203C
:1021E000D4F80080C8F800C0DEF80420521EFDD1EB
:1021F000C8F80030DEF80420521EFDD13744D5F86F
:102200000080860806F00102C8F80020D4F800809B
:10221000C8F800C0DEF80420521EFDD1C8F8003016
:10222000DEF80420521EFDD13744D5F80080C608E0
:1022300006F00102C8F80020D4F80080C8F800C0F9
:10224000DEF80420521EFDD1C8F80030DEF804206C
:10225000521EFDD1BA192E6802F0010232602668C2
:10226000C6F800C0DEF80420521EFDD13360DEF84F
:102270000420521EFDD12A68C2F800C02668C6F8A4
:1022800000C0DEF80420521EFDD13360DEF80420C9
:10229000521EFDD1BC4A126813602568C5F800C003
:1022A000DEF80420521EFDD12B60DEF80420521E01
:1022B000FDD1B84A1268950005F1804606F5204622
:1022C000D6F88080B44D4FF00F092D68AF0009FAA1
:1022D00007F928EA09084FF0040909FA07F748EA5C
:1022E0000707C6F88070AD4E06EB820606F0704612
:1022F00006EBC21202EB850202F1047202F58222A1
:10230000C2F800C89EF81C50002D18BF26680CD0DB
:10231000C6F800C0DEF80420521EFDD13360DEF89E
:102320000420521EFDD16D1EF2D12268C2F800C0F9
:10233000DEF804506D1EFDD1DFF864B2DBF800500A
:102340002D681360DEF80460761EFDD1C2F800C06F
:10235000DEF80460761EFDD1DBF80060376813609C
:10236000DEF80460761EFDD145EA4706C2F800C0DB
:10237000DEF804506D1EFDD1DBF800502D681360AF
:10238000DEF80440641EFDD146EA8505012D2FD0FC
:10239000022D18BF042D00F01B819EF81C0010F1C7
:1023A00021010CD0C2F800C0DEF80400401EFDD1AF
:1023B0001360DEF80400401EFDD1491EF2D17548BD
:1023C0000068800000F1804000F52040D0F880C017
:1023D00071490F22097889008A402CEA020C0522F3
:1023E00002FA01F14CEA0101C0F8801000F045B991
:1023F00010F0020F5BD04FF00009C8462026F246CD
:10240000C2F800C0DAF80440641EFDD1DBF80040D9
:1024100027681360DAF80440641EFDD14FEA5904BE
:10242000B84444EAC779761EEAD1584EC2F800C0D3
:10243000DAF80440641EFDD1DBF800402468136024
:10244000DAF80420521EFDD188EA040212F0010FCE
:1024500018BF0825002918BFC1F800909AF81C2061
:10246000002A18BF34680CD0C4F800C0DAF8041091
:10247000491EFDD12360DAF80410491EFDD1521E19
:10248000F2D144490968890001F1804202F52042F5
:10249000D2F8806040490F24097889008C40A64317
:1024A000052404FA01F13143C2F8801055E09EF88A
:1024B0001C7074465FB100BFC2F800C06668761E2B
:1024C000FDD113606668761EFDD17F1EF4D1314ABE
:1024D0001268920002F1804202F52042D2F8808018
:1024E0002D4E0F273678B600B74028EA0708052793
:1024F00007FA06F648EA0606C2F880600026DFF80A
:1025000088A0DFF88890D1F800202027DAF8008032
:1025100002F00101C8F80010D9F80080C8F800C026
:102520006168491EFDD1C8F800306168491EFDD1BF
:10253000164452087F1EE9D1DAF8002006F00101A6
:102540001160D9F80020C2F800C06168491EFDD1B1
:102550001360DEF80410491EFDD110F0800F0AD080
:10256000104811490068B0FBF1F010494968B1FB0F
:10257000F0F0CEF80C009EF8101041B3024800684D
:10258000C0F800C0014813E0FC020020F402002063
:102590007C050020080300200C030020C0A00040A0
:1025A000F80200202003002040420F00001000E04D
:1025B000D0F80020C2F800C0DEF80400401EFDD1B3
:1025C0001360DEF80400401EFDD1491EF2D154E034
:1025D0009EF81D1000291CBF10F0020F21240CD002
:1025E000C2F800C0DEF80410491EFDD11360DEF809
:1025F0000410491EFDD1641EF2D19EF81C4064B146
:10260000C2F800C0DEF80410491EFDD11360DEF8E8
:102610000410491EFDD1641EF2D11B4909688900CE
:1026200001F1804101F52041D1F88060174A0F2463
:10263000127892009440A643052404FA02F2324331
:10264000C1F880209EF81D10B9B110F0020F14D10E
:102650000F480068C0F800C00E482121D0F80020C3
:10266000C2F800C0DEF80400401EFDD11360DEF8A1
:102670000400401EFDD1491EF2D1054800680360E8
:10268000E8B2BDE8F08F0000080300200C03002032
:10269000FC020020F40200202DE9F003451E3CBF9F
:1026A000BDE8F0037047DFF850900026DFF84CC01B
:1026B000134C012711F8012B5FF00803D9F8000033
:1026C00012F0010F14BF07600660DCF80080C8F844
:1026D00000606068401EFDD1C8F800706068401E50
:1026E000FDD152085B1E6D1E3CBFBDE8F003704774
:1026F000002BE3D1DEE70000FC020020F402002002
:102700007C0500200C490D4A0968B0EB910F02D3FB
:10271000012050700DE000EB5101491EB1FBF0F0BB
:1027200000235370022803D90321B0FBF1F000E02D
:102730000120506070470000200300207C0500202D
:102740000F4810B50068104983000E480B684FF021
:10275000010209D513F4401F0C4B03D00968C1F3E3
:10276000015108E0036010BD13F4E02F084BF9D0CD
:102770000968C1F302418A4093FBF2F1016010BD88
:10278000300A0040200300203C0A004000093D00C0
:1027900000D8B80510B472B6414942480160BFF391
:1027A0004F8F62B6404A9068810140480BD540493E
:1027B0004B6B5B1C07D08B6B5B1C04D04B6B041FFB
:1027C0002360896B06E001683A4B1940016001689B
:1027D00041F470210160106D37490843106533489A
:1027E0004838016841F01801016030482430016820
:1027F00041F006010160016821F0010101602B49EF
:1028000018390868820701F1040003D42B4A1268C2
:10281000520207D4026842F003020260026822F00A
:10282000030206E0026822F004020260026822F05D
:1028300020020260086840F0600008601B48183001
:10284000016841F00A010160016821F004010160A2
:10285000001D016821F00F01491C016013480C386C
:10286000016840F2014221F03F0111430160144828
:10287000016841F4805101600C482030016841F04A
:102880000101016007488030016841F47001016076
:10289000BFF34F8FBFF36F8F10BCFDF7AFBF0000CA
:1028A0000000010008ED00E000200040480A004060
:1028B00000100040FF07F0FF000001310008004059
:1028C00004040040BFF34F8F05480168054A01F436
:1028D000E06111430160BFF34F8F00BFFDE70000CF
:1028E0000CED00E00400FA05044805490068B0FB5F
:1028F000F1F004494968B1FBF0F070472003002073
:1029000040420F00001000E0064810B5016A016265
:1029100007F04EFD002803D0BDE8104000F004BAD7
:1029200010BD000000B0004000F004B800F002B894
:10293000AFF3008070B51B4D68684469446161065F
:1029400007D5016821F002010160016841F0020130
:102950000160200711D508266868C068C0060CD041
:10296000114802F075FB40B1A86890F800180E48B5
:1029700002F0D2FB68684661EEE7600705D470BDDF
:102980000A4802F08DFBA9680870084802F06DFB48
:102990000028F4D06868806800F01F002028EFD37A
:1029A00070BD000024030020DC470020CC3700204D
:1029B000002070470348D0E90410081A024909882A
:1029C000081A7047B804002022BC010070B50B4DF6
:1029D0000C460346D5E90C0188420BD9401A8442C3
:1029E00000DD044622461846FDF77AFD686B204458
:1029F000686300E00024204670BD0000B804002099
:102A0000002070472DE9F041194F0C460646D7E9E2
:102A10000401401A17490988081A002802DC00201E
:102A2000BDE8F081844200DD0446D7E906020025B6
:102A300090420FD3104B021919448A420AD30D1A3F
:102A400098462A463146FDF74BFD2E44641B40460E
:102A5000C7F8188034B122463146FDF741FDB86908
:102A60002044B8613969601901443961D8E7000030
:102A7000B804002022BC0100B659002010B5054C56
:102A80006068002805D10120606000F005F8002092
:102A9000606010BDB80400202DE9F047244CA06808
:102AA00000283ED0D4E90401421AE0684FF0000645
:102AB00052EA000137D021461E4FC969DFF87880FD
:102AC000DFF878901E4D7AB1A069814205D338882D
:102AD0008B182844834200D3421A99F8003038F802
:102AE0001300904200DA02461648E660007840F093
:102AF000800002F0EDF8E1690144E161626902449D
:102B000062613B882B448B4200D1E561216991428F
:102B10000BD199F8002038F81210814205D101201C
:102B2000E060BDE8F087A660FBE7E660F9E700003B
:102B3000B804002022BC010026BC01005B05002077
:102B4000B659002020BC010010B50B4C206A18B10A
:102B5000A06A401CA06210BD01202062606200F0EB
:102B60000DF8002060622062D4E90C018842F2D0A6
:102B7000401AFFF745FF10BDB804002010B5134CF4
:102B80001348164B216B0A1A12481B780088821AC8
:102B9000114830F8130082420EDB1148007801F032
:102BA000D3FC216B08442063A06A00280CD0616A22
:102BB000002909D1401E06E00120E062606A002879
:102BC00002D0A06A401CA06210BD0000B804002022
:102BD000F659002024BC010026BC01005B05002042
:102BE00021BC0100704700207047002070470000A2
:102BF00010B50B4800F03CF8002810D0084A0948EE
:102C0000116801700B0A43700B0C8370090EC170C0
:102C1000117901715179417191798171012010BD52
:102C2000F0040020B45800200E4810B50021416087
:102C30008160C1600C4A0161C0E90512C0E9072149
:102C400041620A4A8162C0E90B1242630180383056
:102C50004FF416520260017141710821817100F038
:102C600015F810BDB8040020B6590020F659002010
:102C700005490A6802600A7982714A794271897944
:102C800001710120704700003C01002010B506F0E2
:102C9000F5FF03F047FF012010BD10B507F07CF8E9
:102CA000012010BD10B507F0C5F8012010BD0000CF
:102CB000064902680A6082790A7142794A7100798C
:102CC00088710020C871084607F07CB83C010020DC
:102CD00010B510480024104944608460C460046149
:102CE000C0E90541C0E9071444620C498462C0E9A7
:102CF0000B4141630480FFF7D0FF06484FF41651A3
:102D0000383001600471447108218171FFF7D0FFF0
:102D100010BD0000B8040020B6590020F65900206C
:102D200010B5FFF7D5FF10BD70B519480078002821
:102D30002DD0184C00250126206A50B9D4E90C0189
:102D4000884206D11449884203D02163E562256296
:102D50006163A06A70B1206A60B9E06A50B9266206
:102D6000FFF70CFF2562D4E90C01884202D0401A1B
:102D7000FFF746FED4E90101084308D1D4E9040174
:102D8000884204D06660A660FFF786FE656070BD6D
:102D900059050020B8040020F659002070B570BD18
:102DA0000D480068C1698847A0B90C4C35B104F0E2
:102DB00041F82060002006F0E3FC0BE004F03AF854
:102DC0002168401AB0F5967F01D3012000E0002071
:102DD00003F0B0FE012070BDB4B80100380100203E
:102DE0000020704700207047024910B50880FFF7A7
:102DF00059FF10BDB80400200A4810B58278018838
:102E000062F31F41C27841EA026207490A6002790F
:102E10000A7142794A71807988710846FFF748FF44
:102E200010BD0000B4580020F004002010B5044686
:102E300001F0E6FE24F08000810004480844D0F848
:102E4000801221F48071C0F8801210BD0000104083
:102E500010B5817821F08001082912D2094C402256
:102E600004EB8103C3F8802282781306064A01D559
:102E7000022300E0012302F8213002EB8101808867
:102E8000488010BD00001040905E002070B50F4CCF
:102E9000B0B101252560002060600D480D49006833
:102EA000B0FBF1F04FF47A714843A060206A2062D1
:102EB000162001F081FF6562206840F4805002E036
:102EC000206820F48050206070BD000000B00040F9
:102ED0002003002040420F0000F00EBB1449A0B1B7
:102EE0004FF6FF70C1F80802D1F80C0240F4B85058
:102EF000C1F80C02D1F8800240F01000C1F8800245
:102F0000D1F8040240F402700FE0D1F80C0220F472
:102F1000B850C1F80C02D1F8800220F01000C1F8BE
:102F20008002D1F8040220F00800C1F804027047C2
:102F30000000104010B50B4C0B48A288007882426C
:102F400000D902461AB907490020143908718020B7
:102F5000216801F0BDFE216801442160A188081AA2
:102F6000A08010BD6C0500200BBC010010B5064C04
:102F70000020A288216801F0E7FA2168014421605D
:102F8000A188081AA08010BD6C05002070470000C1
:102F9000044A20F0800002EB80000021C0F880127B
:102FA000704700000000104070B5044603F0F6F9C9
:102FB000104D24F0800405EB8400D0F880220E49E7
:102FC00011F824301A4342F05002C0F8802211F860
:102FD000240001280CD1204603F0E0F9074901EB59
:102FE00084114160402101600120A040C5F82C02FD
:102FF00070BD000000001040905E0020905C00203A
:103000002DE9F0476E4F0446A7F1080580074FF001
:103010000009A5F1140622D501F038FE3878C00960
:10302000FFF7B4FFF888A8803878C0F3411121B1C8
:1030300001295AD002296FD165E07978DFF88481BF
:103040000C2969D2DFE801F0060C681368182768BC
:103050002B31384601F0ECFB1FE0FFF76BFF67E018
:10306000002005E001F022FED8F8000039E0012040
:1030700001F01CFCC0B3F5E710F01F0F4CD1B8787D
:10308000012140F08000307000F07F0001F0E7FD8A
:1030900001F00CFE4CE001F0CBFA28B3DDE710F0B4
:1030A0001F0F39D146481B3812E001F04FFCD8B150
:1030B00001F0FCFD444813E000F01F0001282BD173
:1030C000707888B13879B178884225D23F49084470
:1030D0002860C2E701F0FEFC30B101F0E7FD3C489A
:1030E000006828B3804723E016E010F01F0013D0DB
:1030F000012811D100F004F9D0B900F05DF9B8B998
:1031000000F0AEF807E010F01F0F05D100F082F9D3
:1031100070B900F0C3F958B93878000603D4F888BC
:1031200008B1002000E0802001F09AFDA5F804908D
:10313000600721D5387800061CD4A888E0B1FFF7D5
:1031400015FFA888C0B93878C0F3411161B10129D1
:103150000AD110F01F0007D0012805D100F062F855
:1031600050B900F037F838B9802001F079FDA5F8A2
:10317000049001E001F0A0FD200712D53878000688
:1031800006D5A888317908430BD0FFF7D3FE08E0B5
:103190003078010605D500F07F003070002101F085
:1031A0005EFD600602D50020FFF740FE200604D534
:1031B000BDE8F0478020FFF739BEBDE8F08700008A
:1031C0007405002084BC01007CBC01002B0400209D
:1031D00080BC010010B51049104A0879127890425D
:1031E00003D00F4A1278904214D1487820B10228B7
:1031F00005D020280ED10AE0FFF7F2FD02E0488852
:10320000FFF7F0FD30B101F051FD012010BDFFF7D7
:10321000F3FDF7E7002010BD740500203403002003
:103220003503002010B50B490B4A087912789042FB
:1032300003D00A4A1278904209D14878092806D169
:1032400000F0B4FA18B101F031FD012010BD0020EA
:1032500010BD000074050020370300203903002052
:1032600070B52249224A08791278904203D0214A47
:103270001278904237D11D4849781F4C1F4D408825
:1032800004291FD007DC79B101290FD002290BD006
:10329000032928D111E0202906D0212919D022297B
:1032A0001AD023291FD11AE02C6010E0FFF79DFCF3
:1032B00005E02C60FFF73EFE09E0FFF794FC0028D4
:1032C000F7D110E0FFF774FB0BE001F0EFFC0120F9
:1032D00070BDFFF78DFCF2E7FFF786FD01E0FFF719
:1032E0005DFD0028F1D1002070BD000074050020B4
:1032F0003403002035030020B45800206C05002062
:103300002DE9F041244E254930790978884203D0CF
:103310002349097888423CD17078224C224D234FB2
:103320000C2836D2DFE800F03506212C353535354E
:103330003516243100F0F6F958B3F078012802D0A0
:10334000032803D003E01A48206000E02560FFF75F
:10335000F1FD12E0F078022802D0032803D00CE03F
:103360001448206009E0256007E000F0C3F909E097
:1033700000F0F6F90BE001F099FC0120BDE8F081C6
:1033800000F0C6F928B12760E1E700F005FA00284F
:10339000F1D10020F2E7000074050020370300207F
:1033A000390300206C05002033040020B4580020AD
:1033B000F55800203659002010B51248124A0179FC
:1033C000127891421BD142784188C088FE2A09D0E8
:1033D000FF2A14D199B990B901F006F878B101F03B
:1033E00065FC0AE059B9012809D100F015FD30B19A
:1033F000074906480860FFF79DFD012010BD002029
:1034000010BD00007405002038030020B4580020CF
:103410006C05002070B51B4D1B49002668780978A3
:1034200088422CD1A888022829D1184CAA7812B336
:10343000002003E0217801B10C44401C411C8A4269
:10344000F8D82078B0B103F063F90146E01CFDF72D
:103450003BF80F4A012614602078E98881420BD995
:103460000C4990800978491E084206D10A4901207A
:10347000087002E0002602E09180FFF75BFD304615
:1034800070BD0000740500202ABC0100EC03002080
:103490006C0500200BBC01005C05002010B5104A33
:1034A0001049002450780978884217D1908807285D
:1034B00014D10E4B0C48012418600189D2888A422D
:1034C00009D90B4899800078401E014204D109496E
:1034D0000120087000E09A80FFF72CFD204610BD07
:1034E000740500202BBC01003E0300206C05002069
:1034F0000BBC01005C050020074800214170C16041
:1035000001614161418081808161C161C18001812E
:103510000162418170470000F80400202DE9F04766
:10352000494EB08871884A4FDFF820817D1C002405
:10353000884216D3B069A0B97461B4800123397888
:103540007A1C184606F040FF7080708848B1776199
:1035500098F80000012801D8756102E07088401CCD
:10356000708070884FF00109B0BBF06808B1F4605A
:1035700032E0316981B398F8000001280DD83C7021
:10358000B48002237A1C0021012006F01DFF708008
:10359000708800B1756134611EE03D78C846202D09
:1035A00000D3002508FA05F0084218D0681CC1B203
:1035B0003970B48002237A1C012006F005FF708068
:1035C000708818B177617088401C7080306908FA83
:1035D00005F820EA08003061708830B902E06D1CFF
:1035E000EDB2DCE7B069002829D07088B188DFF837
:1035F0006880401A85B2174F98F8000037F810001D
:10360000A84200D205461548007828B140F0800055
:103610002A46716901F05CFB7069114928447061A8
:10362000B088284480B2B0800988884209D298F8CE
:10363000000037F81000A84203D1C6F81890BDE882
:10364000F087B461FBE70000F804002012BC010021
:10365000F45800200EBC01005B0500200CBC0100EA
:1036600014BC0100F8B51C4C1C4D1D4F20890026D0
:1036700018B9E5613888E0802681E0882189421AFE
:103680001848E169007800F05FFF0004E169000C70
:103690000144E161218901448BB2238109D0398839
:1036A0008B4206D2114A1049127831F81210814229
:1036B00010D90F48017801200129009003D800217A
:1036C000064A022003E029786A1C02205B1E06F0ED
:1036D0000DFF2681F8BD0000F804002035590020B8
:1036E00016BC01000DBC01000EBC01005B050020F2
:1036F00013BC0100034804498078085C0349087042
:10370000012070477405002031040020B4580020C7
:1037100010B506F057FE02490870012010BD0000E8
:10372000B45800200B4910B5C8780022012804D0F5
:10373000022804D0032806D103E0074A02E0002053
:1037400010BD064A521C8978002306F03DFE012078
:1037500010BD000074050020F45800203204002041
:10376000094809498078C97810B1084A815409E0AC
:10377000084A0020064B127802E01954401CC0B2DF
:103780009042FAD3012070477405002030040020D5
:103790003104002012BC0100034810B5807806F007
:1037A000A3FE012010BD0000740500200C4908B5DF
:1037B000C8780022012804D0022804D0032806D1AA
:1037C00003E0002008BD074A00E0074A521C00231E
:1037D0000093CB88897806F089FE012008BD00009F
:1037E0007405002035590020320400202DE9F047EF
:1037F000DFF8DC80D8F80842C8F80842354D2007C9
:103800000FD5286828B1002028603348006800B12F
:10381000804704F04DF806F013FF3048006800B10F
:103820008047200601D504F043F8E0064FF0010779
:1038300004D52F602A48006800B18047294E6006F1
:1038400003D5316809B101208847A00603D5316846
:1038500009B100208847DFF89090E00505D56F603A
:10386000D9F8001009B102208847A00510D5D8F872
:103870003072C8F8307201260025374204D059F85A
:10388000251009B10820884776006D1C082DF4D357
:10389000600510D5D8F83472C8F8347201260025B6
:1038A000374204D059F8251009B104208847760022
:1038B0006D1C082DF4D3E00404D5D8F83C02C8F8F8
:1038C0003C02FEE7BDE8F047082001F075BA0000B1
:1038D000000010403404002038BC010030BC01005E
:1038E00034BC01002CBC01003CBC0100194810B5DF
:1038F000016841F0100101601748016841F01001B2
:1039000001601649086820F0407040F000700860BF
:10391000134C0020206001212160C4F80C024FF6F6
:10392000FF71C4F80812C4F80402D4F8041241F07C
:103930002001C4F80412C4F8040203F0B9FF0948D6
:10394000C4F82002E820C4F80C02BDE810400820AA
:1039500001F032BA00080040040400404005004075
:1039600000001040005C002070B500F005F9002850
:103970001CD00F4802220F4D027042700E4C0320E3
:103980002A632870A068022803D9A4F11F0082606E
:10399000A2600A480649007840F0800001F098F9DA
:1039A000A068296B401AA0600120207370BD000040
:1039B00076590020200500209B65002018BC0100DE
:1039C000114910B50878022808D0032810D004281F
:1039D00012D0052801D10020087010BD0B48C07B13
:1039E000282801D0A828F8D1BDE8104000F058BA26
:1039F000BDE8104000F030BD0548007840F0800080
:103A000000F042FDF4E70000200500207C65002066
:103A100018BC0100204A10B5117869B301290ED0F5
:103A20001E48052900781BD007292BD000F02CFD5B
:103A30001B4902200873BDE8104000F00DBD184876
:103A40001F38C07B2A2803D02F2805D0AA2822D1CE
:103A5000BDE8104000F0F8BABDE8104000F08ABAA6
:103A6000012181400F480068014201D0012000E09F
:103A7000002040F23F4200E009E0BDE810400AA10A
:103A800001F053BA00201070106B1F2803D1BDE85D
:103A9000104000F0C9B810BD2005002019BC01007D
:103AA0009B650020640500202E2E2F2E2E2F2E2EFB
:103AB0002F736F757263652F7573622F6D73632F2C
:103AC000757362645F6D73632E630000104910B5F7
:103AD0004868C86008B1012010BD0E4800F11F04FD
:103AE00082687AB1007B000604D50B48007840F06C
:103AF000800005E0A068096B884203D00748007881
:103B000000F0C2FC0120207300F0A6FC002010BDD4
:103B1000200500207C65002018BC010019BC0100B4
:103B20001048007900F08F01080605D501F00F005C
:103B30004FF48032824001E001228A400A48007836
:103B400040F0800088420CD108490968114208D031
:103B50000749084A0968914203D10D22044901F03E
:103B6000B7B870477405002018BC01006405002038
:103B70009B6500205553425370B50A48022400F15A
:103B80001F05816831B1007B000608D40648007823
:103B900000F07AFC2C7300F05FFC002070BD012067
:103BA00070BD00007C65002019BC010010B50E48F6
:103BB0000E4C8068216B884202D82063032000E00D
:103BC000042020700A480B49226B007840F08000E6
:103BD00001F07EF80448226B1F308168891A8160E9
:103BE0000021017310BD00007C650020200500202D
:103BF00018BC010076590020FFF7E2BE064810B558
:103C0000028807480549007800F09EFC05490863D2
:103C1000BDE81040FFF7FEBE1EBC01007659002033
:103C200019BC0100200500202DE9F047734E326BCE
:103C30001F2A01D2134600E01F230020704D714956
:103C400002E00C5C2C54401C9842FAD3DFF8BC9183
:103C50000127DFF8B4A199F800001F2A40F0800086
:103C60007ED129686A4A91427AD1654C69681F34CD
:103C70006160A968A160697B19B9A97B09B11029A4
:103C800001D927738AE0E97B4FF002082A293ED048
:103C900022DC1A294FD00FDC0429F2D006DCE9B36C
:103CA0000329EED1BDE8F04700F05CBB1229E8D152
:103CB000BDE8F04700F0B8B8232944D007DC1B2941
:103CC00035D01E29DDD1BDE8F04700F0DBB825294D
:103CD0003DD02829D5D148E09E2940D00FDC552978
:103CE000CFD004DC2F2954D03529CAD103E05A297A
:103CF00025D09129C5D1BDE8F04700F0F5BBA12939
:103D000029D0A3295DD0A8292FD0AA29B9D100F0A4
:103D100075FA002805D0287B000600E003E04BD4AC
:103D20003770BDE8F087BDE8F04700F0E5BBBDE8BF
:103D3000F04700F0BFBBBDE8F04700F037BABDE880
:103D4000F04700F007BABDE8F04700F0D5BABDE88B
:103D5000F04700F0A9BABDE8F047FFF705BE00E064
:103D600032E0BDE8F04700F051BB00F047FA002810
:103D7000D7D0287B000605D586F80080BDE8F0473F
:103D800000F08EB89AF8000000F07EFB84F80C80FA
:103D900004E0287C800705D400202073BDE8F047AC
:103DA00000F05ABB00F02AFA0028BAD0287B00069F
:103DB00002D437703762B4E799F8000040F0800011
:103DC000E2E700F061FB5CE74C4600F05DFB207829
:103DD000104C00F00F014FF48030884021685546A8
:103DE000084320609AF8000000F04EFB28788740D6
:103DF0002068074306202760307092E720050020E6
:103E00007C6500207659002019BC010018BC010017
:103E100055534243680500200249002008700120E4
:103E200070470000B458002010B5FFF7A5FE002829
:103E300020D0114B002080211870597002219970F8
:103E4000D97020241C7158719871D8710B48016881
:103E500008200A7812B11A54491C00E01C54401C76
:103E6000C0B22428F5D3064924200863BDE81040D9
:103E7000FFF79CBE10BD000076590020E80300202B
:103E8000200500200548C07CC107044800F11F0040
:103E900000D00121017300F0DFBA00007C65002032
:103EA0002DE9F0412E4D2F4F0026A969686ADFF8F1
:103EB000B88088420AD33878002440F0800000F0AF
:103EC000E3FA88F80C6000F0C7FA08E028492748B0
:103ED000097830F81140E86A844200D30446FFF7BD
:103EE000F5FD00B90024A86A48B374B1A96AE8696D
:103EF00022460144387840F0800000F0E9FEA86ACC
:103F00002044A862E86A001BE862D5E90410AA6AA6
:103F10004143914203D1AE62696A08446862D8F8AD
:103F200008104046091BC8F80810002C05D0E96AA3
:103F3000002902D1032129700673BDE8F081002C0D
:103F4000E3D0E96A28690144491EB1FBF0F26869CF
:103F5000824200D90246E969686A06F029FBC5E792
:103F60002005002018BC01009B6500201ABC010040
:103F70005B0500202DE9F0412F4C00252F4EA16953
:103F8000606A884207D32E482563007800F07CFAE7
:103F9000357300F061FAFFF799FD20B1206B08B38B
:103FA000A06A10B10FE0256320E0E16A20690144B6
:103FB000491EB1FBF0F26069824200D90246E16914
:103FC000606A06F0F5FA00201E49A36A226B0BE036
:103FD000D4F81CC01F181CF8077011F800C0674502
:103FE00001D0256202E0401C9042F1D3A16A206B0F
:103FF0000A18A262E16A0B1AE362D4E904714F4322
:10400000974203D1A562626A11446162B168091ADC
:10401000B16000280DD013B12078052809D1206A9D
:1040200028B100203073BDE8F04100F015BA01203E
:10403000F8E7BDE8F0810000200500209B65002026
:1040400019BC0100765900202DE9F041344D0026BD
:10405000344FA969686A884207D333482E630078D1
:1040600000F012FA3E7300F0F7F9FFF72FFD00B9E8
:104070002E63296BA86A08442969884206D9BDE8DD
:10408000F041FE2229A1002000F04FBF002030495E
:1040900005E0AB6AEC690A5C0344401CE2542A6BFD
:1040A0009042F6D3A86A11000844A862EA6AA2EB1B
:1040B0000102EA6222D092B988B129690844401EFF
:1040C000B0FBF1F46869844200D904462246E969EC
:1040D000686A06F087FAAE62686A20440DE0D5E9A6
:1040E000041202FB01F3834208D1E969686A06F011
:1040F00079FAAE626969686A08446862B968286BCF
:10410000091AB960002809D0E86A10B12878052892
:1041100004D13E73BDE8F04100F09EB9BDE8F081E6
:10412000200500209B65002019BC01002E2E2F2E9B
:104130002E2F2E2E2F736F757263652F7573622F5E
:104140006D73632F757362645F6D73632E6300001C
:104150007659002010B5FFF70FFD00281FD0FFF79C
:10416000B5FC00281BD00E480021062201700D4B23
:10417000427081701A7AD201C270017141718171ED
:10418000C1710949082018638A68082A03D9A1F176
:104190001F0290608860BDE81040FFF707BD10BDAA
:1041A00076590020200500209B65002010B5FFF700
:1041B000E3FC00281BD0FFF789FC002817D00C482F
:1041C0000321002201700B4942700B7ADB018370DE
:1041D000C2700420086308498A68042A03D9A1F13F
:1041E0001F0290608860BDE81040FFF7DFBC10BD83
:1041F00076590020200500209B65002070B5264CD4
:10420000264DB4F81100E17C40BA000440EA0121D7
:10421000207D01430020C5E90910E07B2F280AD04A
:1042200004DC28280BD02A2819D104E0A8280DD0B6
:10423000AA2814D106E0FFF749FC002829D0E08A1B
:1042400041BA0CE0FFF742FC002822D0B4F8150078
:10425000E17D40BA000440EA0121207E0143286943
:104260000D4E4143E962A06801251F3668B18842BE
:1042700010D0207B000604D50948007840F080006B
:1042800001E00848007800F0FFF8357300F0E4F82A
:10429000002070BD012070BD7C650020200500203D
:1042A00018BC010019BC010010B5FFF765FC00281F
:1042B0001CD0FFF70BFC002818D00D4A0D4891695F
:1042C000491E0B0E03700B0C43700B0A8370C170F8
:1042D00011690B0E03710B0C43710B0A8371C171D1
:1042E00008201063BDE81040FFF760BC10BD00005F
:1042F000200500207659002010B5FFF73DFC00286E
:1043000029D0FFF7E3FB002825D013480021134AEA
:104310000170417081700821C17091690B0E0371A9
:104320000B0C43710B0A8371C17102210172116977
:104330000B0C43720B0A8372C17209490C20106383
:104340008A680C2A03D9A1F11F0290608860BDE839
:104350001040FFF72BBC10BD76590020200500202F
:104360009B65002010B5FFF707FC002835D01B48DF
:1043700070211B4B017000214170DC685A6832EAE1
:10438000040406D006248470282404734173DA6080
:1043900008E0DAB1134A127BE2B1052282702022D2
:1043A00002734173C1700171417181710A22C2713E
:1043B000017241728172C1728173C173017441745F
:1043C00012201863BDE81040FFF7F0BB0222827094
:1043D0003A22E5E781700173E3E710BD76590020CA
:1043E000200500209B650020044900200860044946
:1043F0000860044907200870012070476805002004
:104400009B65002020050020FFF7EEBF10B5FFF7E9
:10441000B3FB002817D00C48202200210270417005
:104420000A4CC177032022632070094806490078AE
:1044300040F0800000F04CFC0648226B8168891A2D
:1044400081600121017310BD7659002020050020F4
:1044500018BC01009B650020084910B5064808609B
:1044600007480D22007840F0800000F031FC05493B
:104470000520087010BD0000555342539B65002075
:1044800018BC01002005002010B5044600F0E8FB30
:10449000200605D504F00F014FF48030884001E07C
:1044A0000120A04002490A681043086010BD0000C6
:1044B000640500200A4810B5817C00F11F0429B171
:1044C00001202073BDE81040FFF7C6BFC07C05493E
:1044D00000F00100486006F083F80020F1E70000DA
:1044E0007C65002020050020024900200873FFF7AA
:1044F000B3BF00009B6500200F4810B5816800F134
:104500001F0469B1007B000604D50C48007840F018
:10451000800001E00A480078FFF7B6FF012004E0C0
:10452000FFF7D4FA002805D000202073BDE8104022
:10453000FFF792BF10BD00007C65002018BC010091
:1045400019BC0100704700002DE9F04790460C4669
:10455000054601F023FF244ADFF89090064635F027
:1045600080074FF0010A28D12148416829B3082566
:10457000B8F1080F08D240F293121EA1002000F0FB
:10458000D4FC0020BDE8F08700214160D9F860022A
:1045900049462060D9F8640260602078000621D482
:1045A000E088F8B1D1F82C02C0071BD10E48903832
:1045B0004260E2880260504612E035684046A845F5
:1045C00000D2054602EB871188462A462046FBF7B3
:1045D00087FFC6F80480402030600AFA07F0494699
:1045E000C1F82C022846CDE7905C00200000104066
:1045F000340400202E2E2F2E2E2F2E2E2F736F756B
:104600007263652F6869635F68616C2F6D6178699B
:104610006D2F6D617833323632352F757362645F7A
:104620006D617833323632352E630000FFF778BA89
:104630002DE9FC414E4BA3F11C051878A3F10804A9
:1046400010F01F0002D001286DD179E04949D878D7
:10465000494E0A784649494F1C390628C97810D076
:1046600006DC012809D0022814D003287ED141E0BD
:1046700007282AD00F2879D156E04148206012201F
:104680005CE0002A72D019B13E4820600A2055E053
:104690003D48FAE70AB9012968D0022021B1009704
:1046A000787000209A7809E000967070F9E7009918
:1046B0000B7813B14B8819440091401C8242F6D10B
:1046C0000098017879B3206037E062B3072021B108
:1046D0000096707000209A7809E000977870F9E7EA
:1046E00000990B7813B14B8819440091401C824209
:1046F000F6D1E5E7254800909878032801D00020FE
:1047000008E002F049F80BE000990A780AB1114478
:104710000091401C99788142F6D10098017811B13E
:10472000206000780AE021E01948007800281BD0BA
:104730001848009020600178C1B14088019005E0E0
:1047400001A9684600F02AF800280DD0A188019838
:10475000814208D9104980B2A0800978491E0842D8
:1047600001D1012028710120BDE8FC810020FBE778
:104770007405002009BC0100EC570020360300201E
:10478000ACBC0100BFBC0100BEBC0100FABC010012
:104790000ABC0100C0BC01000BBC010070B5194A85
:1047A000194C1B4ED378194A2578212B1478154AB9
:1047B000127902D0222B22D116E0AA4201D0A242C5
:1047C0001DD1144A1378144A12780BB9012A16D055
:1047D00042B1124A02601046114A128810443060F9
:1047E000092009E00F4AF5E7AA4201D0A24206D10A
:1047F0000D4830600D4800880860012070BD002021
:1048000070BD00007405002037030020390300202C
:104810006C05002009BC01005B0500203603002068
:104820003C030020EC57002088BC0100AABC01001A
:1048300070B51C481B4C0078A4F1080410F01F0050
:104840000AD0184AA4F11403174D59781279012897
:1048500006D0022824D109E01248163820601DE055
:10486000F1B1987882421BD2002015E002F08F004F
:10487000020605D500F00F064FF48032B24001E089
:104880000122824009B900070AD19868104207D076
:10489000D868104000D0012028802560012070BD1C
:1048A000002070BD74050020B458002070B5264B60
:1048B000024619461878498810F01F00A3F11C061B
:1048C00004D0012829D0022827D111E0012924D1C0
:1048D00032B1012000F0FAF9F08840F0020005E062
:1048E000002000F0F3F9F08820F00200F08029E0C9
:1048F000187900F08F04200605D504F00F004FF45E
:104900008035854001E00125A540707828B1200759
:1049100003D0B068284200D009B1002070BD2AB190
:10492000204600F09DF9F06828430AE030692842EB
:1049300008D12046FEF77AFA2046FFF777FEF068A6
:10494000A843F060012070BD740500202DE9F05FE0
:104950005A480026017811F01F0F7DD1574F8078FB
:104960001C3FB1464FF0010A4FF4803B00287AD03B
:10497000534801783846C07809B901286CD008B18D
:10498000504C6CE0504C6AE06078022805D0042856
:1049900045D0052845D007285CD148486179807802
:1049A00081423AD1787020794949B8700020474A4D
:1049B000098802E002F80090401C8842FAD30125E1
:1049C000B8460AFA05F0D8F80810084202D028467E
:1049D000FEF7DEFAD8F808100BFA05F0084203D00B
:1049E00045F08000FEF7D4FA6D1C102DE9D34FF08E
:1049F0000110C8E902090120C8F81090FEF746FA34
:104A0000E0794006B8F8060002D540F0010001E068
:104A100020F00100A8F806001CE060881BE0E678A2
:104A200018E0BEB9A07800F08F05280604D505F07F
:104A30000F010BFA01F001E00AFA05F0B968014331
:104A40002046B960FEF704FA2846FEF7ADFA28467C
:104A500000F0D6F8207801E02BE004E00444207850
:104A6000002891D120E04D4687F8019001245E4650
:104A7000B9680AFA04F0084202D02046FEF788FA24
:104A8000B96806FA04F0084203D044F08000FEF74B
:104A90007FFA641C102CEBD34FF00110C7E902051C
:104AA00000203D61FEF7F2F9044879788078884269
:104AB00002D00020BDE8F09F0120FBE77405002034
:104AC00009BC010036030020EC5700202B04002015
:104AD0003A0300202DE9F84F444800273E4600786D
:104AE000BA4600F01F00B94601287CD13F491C3965
:104AF0004878002874D0002000903D48027808468D
:104B0000C0780AB901286ED08B4608B1394C63E0F1
:104B1000394C61E06078022805D004280AD00528C5
:104B20001AD0072856D161799BF80100814251D0F3
:104B3000608850E02D48A778E67801794FF00009A9
:104B4000B94247D18078B04244D1012000902B482F
:104B500010F807A0C6553DE024490879B84239D17C
:104B6000A07800F08F085FEA086005D508F00F0014
:104B70004FF48035854002E0012505FA08F5887874
:104B8000B04215D1DBF8081020462943CBF80810B5
:104B9000DBF80C10A943CBF80C10FEF759F940468E
:104BA000FEF702FA404600F02BF849EA050911E049
:104BB00056450FD119EA050F0CD1DBF80810404615
:104BC000A943CBF80810DBF80C10A943CBF80C1064
:104BD000FEF7DEF920780444207800289AD1009866
:104BE000BDE8F88FFFE70020FAE700007405002019
:104BF00009BC010036030020EC5700202B040020E4
:104C000070B5044601F0CAFB0E4D24F0800405EB9C
:104C10008400D0F8801241F04001C0F880120A48A8
:104C200010F8240001280CD1204601F0B7FB0749F9
:104C300001EB84114160402101600120A040C5F8D2
:104C40002C0270BD00001040905E0020905C00209F
:104C500010B5FEF765F8BDE81040FFF7D5BB70470B
:104C6000094930F0800008D001EB8000D0F88012B4
:104C700041F48071C0F880127047D1F8800240F48E
:104C80004070C1F8800270470000104008220249BD
:104C90000020FFF759BC00007405002002484FF4C3
:104CA0000071006902F0EEB80401002000221146F4
:104CB000802000F00DB8000002480349027800206F
:104CC000FFF742BC0BBC0100B45800207047000045
:104CD0002DE9F04714468946054601F05FFB194F60
:104CE000064625F080000122D7F8281202FA00F5C6
:104CF000294222D170B9D7F8801241F48061C7F8F7
:104D00008012114914B1402C19D001E08A68A2B177
:104D100000228A60402C00D940240C49224601EB35
:104D2000801080464946FBF7DBFBC6F80480346000
:104D3000C7F828522046BDE8F0870020FBE78A60CC
:104D4000EBE700000000104034040020905C0020DD
:104D50004FF0E0214FF48070C1F88001BFF34F8F16
:104D6000BFF36F8FFFF79ABF0348816821F070414E
:104D700081600020704700000020004000280DDB0B
:104D800000F01F02012191404009800000F1E02065
:104D9000C0F88011BFF34F8FBFF36F8F70470028AB
:104DA00009DB00F01F02012191404009800000F161
:104DB000E020C0F800117047002809DB00F01F0256
:104DC000012191404009800000F1E020C0F800116D
:104DD00070470000EFF3088400F00F010D2901D1A6
:104DE000EFF30984A18B04F12005890500D52D1D61
:104DF000C10600D4483500F069FAEFF3098000F0ED
:104E000065FAEFF3088000F061FAEFF3148000F028
:104E10005DFA284600F05AFA606900F057FAA06976
:104E200000F054FAE06900F051FA1248006800F00E
:104E30004DFA1048001F006800F048FA0D48001DA8
:104E4000006800F043FA0B481030006800F03EFAAA
:104E500008480830006800F039FA06480C3000684D
:104E600000F034FA432204A1002000F05EF8FDF7C0
:104E700029FDFEE72CED00E02E2E2F2E2E2F2E2EBC
:104E80002F736F757263652F6461706C696E6B2F21
:104E9000486172644661756C745F48616E646C65EC
:104EA000722E630010B5002A06DA22F00042D21DED
:104EB00022F00703102203E0D21C22F003030C228D
:104EC00013B19C188C4201D9012010BD0244014449
:104ED0008360C0E90021C91AD018884202D8106046
:104EE0000246F9E70020106010BD000010B504462E
:104EF00003F010FA002805D04FF6FF71DFF808C064
:104F0000206800DF10BD0000CD7D010010B5044613
:104F100003F000FA002803D0DFF808C0206800DFA3
:104F200010BD00001D7D010070472DE9F0411646BF
:104F30000F46002818D1EFF3108572B600231A46E9
:104F40001946184600F0E2F9040003D1314638460C
:104F500000F038FA85F31088002C05D1EFF30380B8
:104F6000C00601D105F084FEBDE8F08170477047AE
:104F700000207047704770477047000010B5282226
:104F80000D490E48FBF733FB05F034FF0C4805F0E4
:104F90002BFF05F05BFD0B490B4A0C4B08604FF4EF
:104FA0000071B0FBF1F01160094901221A6008603C
:104FB00009490848086010BDA0B40100F82C002081
:104FC00075590100540500203005002034050020EB
:104FD00038050020F82A00203C05002000B591B0DB
:104FE000FDF7E8FC402801D9402000E060B181B223
:104FF000684604F0C9FE010006D06846FDF702FDD0
:1050000010B1012001F076FD04F068FF0146402850
:1050100001D9402100E059B16846FDF7D7FC38B10D
:1050200081B2684604F026FF10B1012001F062FD54
:1050300001F078FD11B000BD0448417880788142CC
:1050400001D0012070470020704700008C00002034
:1050500030B50546EFF3108472B600F006F8A96883
:10506000081A84F31088401E30BDEFF3108372B627
:10507000D0E900128A4201D3501A02E0806810443D
:10508000401A83F310887047EFF3108372B6C0E9BB
:1050900002210021016083F3108841607047000005
:1050A00070B50446EFF3108572B6D4E9000188426A
:1050B00001D0012000E0002042220EA1FFF735FFC1
:1050C000E16820680E5C401C2060A16888420CD317
:1050D00002D14FF0010001E04FF000004FF0470215
:1050E00004A1FFF722FF0020206085F310883046DE
:1050F00070BD00002E2E2F2E2E2F2E2E2F736F758B
:105100007263652F6461706C696E6B2F6369726383
:105110005F6275662E63000070B50446EFF310857C
:1051200072B6C068626881546068401C6060A168A3
:1051300088420CD302D14FF0010001E04FF0000093
:105140004FF0300209A1FFF7F0FE00206060D4E9C3
:105150000001884201D0012000E00020352203A197
:10516000FFF7E3FE85F3108870BD00002E2E2F2E72
:105170002E2F2E2E2F736F757263652F6461706CE6
:10518000696E6B2F636972635F6275662E630000E0
:105190002DE9F04114460E460746FFF766FF8442AC
:1051A00000D220460546002404E03846FFF778FF89
:1051B0003055641CAC42F8D32846BDE8F0812DE997
:1051C000F04114460E460746FFF742FF844200D2E4
:1051D00020460546002404E0315D3846FFF79CFF79
:1051E000641CAC42F8D32846BDE8F08100F0B0BCA6
:1051F00000F0AEBC02488079002800D00120704742
:10520000BF3700200248C079002800D00120704735
:10521000BF3700200248407A002800D001207047A4
:10522000BF3700200248007A002800D001207047D4
:10523000BF3700202DE9F0418E212148FBF711FAFC
:10524000204C214F8E2520681D4EB84210D1A588D4
:105250008E2D01D22A4601E04FF08E0201D84FF088
:105260008E0518491648FBF73BF9002086F84700E1
:105270008E211448FBF7F5F92760A58041223546B9
:10528000F11DE01DFBF72CF935F8480F24F8480F05
:10529000A878A070E878E0708200094909484C318C
:1052A0004C30FBF71DF995F8440084F8440095F85C
:1052B000450084F84500BDE8F04100F0BFB80000AB
:1052C0003137002000000220646C766B074A92F8A8
:1052D0004B10102901D30020704702EB8101C864F4
:1052E00012F84B0F401CC0B2107070470000022033
:1052F00010B5054C4121E01DFBF7B3F9002024F85F
:10530000480FE07010BD0000000002202DE9F047BA
:10531000184F81461D4616468846F81DFBF76AF869
:10532000441CB9F1000002D04146FBF79AF9002075
:1053300006B1308005B12870F879002818D04445AE
:1053400002D8F91D224604E0A4EB0800C119424628
:10535000C91DB9F1000F02D0B7F84800308016B16E
:105360004846FBF7BDF815B197F84A0028700120B0
:10537000BDE8F08700000220014890F88C007047DB
:1053800000000220054A92F84B1029B102F14C01AD
:10539000016092F84B007047002070470000022027
:1053A00002488079002800D00120704700000220C8
:1053B000034890F88D00002800D0012070470000BD
:1053C000000002202DE9F04188460746FBF712F85D
:1053D000104D441C41263146E81DFBF742F9412C93
:1053E00002D83946224602E0413CE11932462C46B9
:1053F000E81DFBF775F8A4F8488000F009F908B13A
:10540000012003E000F006F900B1022084F84A0010
:10541000BDE8F08100000220014981F88C0070474E
:10542000000002200149887170470000000002203E
:10543000014981F88D0070470000022070B50022FC
:1054400011461046FCF706F91848174C0168216010
:1054500041686160008920810A21154800F006FE3C
:10546000144E134D60B12868B04209D1A8880A28AB
:1054700001D2AA8800E00A220D490B48FBF730F858
:105480000A202660A0800146094800F0EFFD28B1FF
:105490002868B04202D1A8880A2804D2BDE870402A
:1054A000014801F0D1BE70BDBF370020B8B801007F
:1054B00000E00700646C766B02498871084601F0D1
:1054C000C3BE0000BF3700200249C871084601F082
:1054D000BBBE0000BF37002002494872084601F0F9
:1054E000B3BE0000BF37002002490872084601F031
:1054F000ABBE0000BF3700202DE9F0410F46064645
:105500004FF0FF340025DFF83C8012E0705D082189
:1055100002F0A2F984EA006408204146002C02DA75
:1055200081EA440400E06400401E10F0FF00F5D161
:105530006D1CBD42EADB2021204602F08DF9C043FC
:10554000BDE8F081B71DC1042DE9F0410E461746B4
:105550002021C04302F080F904460025DFF83C809A
:1055600012E0705D082102F077F984EA00640820F7
:105570004146002C02DA81EA440400E06400401E47
:1055800010F0FF00F5D16D1CBD42EADB2021204662
:1055900002F062F9C043BDE8F0810000B71DC1040C
:1055A00070B514460D460646202A07D240F2DD1299
:1055B00009A10020FFF7B9FC022070BD00F018FD22
:1055C00008B1102070BD2A462146304600F0A8FEE2
:1055D0000028F7D0202070BD2E2E2F2E2E2F2E2EFD
:1055E0002F736F757263652F6461706C696E6B2FBA
:1055F000647261672D6E2D64726F702F6961705FC8
:10560000666C6173685F696E74662E6300000000EB
:10561000002070470120704710B500231A4600F0A3
:10562000CFFA002800D0012010BD10B505F02CF9EC
:10563000012800D0002010BD2DE9F041144E0024B7
:105640004FF460453078012806D040F2371211A19E
:105650000020FFF76AFC09E0B078022748B140F269
:105660003D120CA10020FFF760FC37700220BDE85E
:10567000F081204600F02AF810B137702220F6E7BA
:1056800004F50054AC42F4D30120B0700020EEE7E2
:10569000600000202E2E2F2E2E2F2E2E2F736F7592
:1056A0007263652F6461706C696E6B2F64726167E1
:1056B0002D6E2D64726F702F6961705F666C6173FF
:1056C000685F696E74662E630000000070B5214E3D
:1056D00004463078012805D0FF221FA10020FFF7E3
:1056E00024FC18E04FF40050B4FBF0F100FB114132
:1056F000022511B140F2071208E0F17869B1D6E94C
:1057000002121144A14208D04FF4877212A1002066
:10571000FFF70BFC3570022070BD4FF4FC22B4F58E
:10572000803F01D3944211D30121F170C6E90240B8
:10573000204601F077F9262803D00028ECD03570F8
:1057400070BD204600F054FC0028F9D035702120AF
:1057500070BD0000600000202E2E2F2E2E2F2E2E2A
:105760002F736F757263652F6461706C696E6B2F38
:10577000647261672D6E2D64726F702F6961705F46
:10578000666C6173685F696E74662E63000000006A
:105790004FF400507047000010B5282804D2064985
:1057A00051F82000002805D1F72204A10020FFF7BE
:1057B000BCFB0AA010BD0000E4B701002E2E2F2E66
:1057C0002E2F2E2E2F736F757263652F6461706C90
:1057D000696E6B2F6572726F722E6300000000009D
:1057E00001460120282901D20148405C7047000091
:1057F000BC0000202DE9F04789460446804600E0C1
:10580000641C2078402802D00028F9D163E0607839
:10581000622847D012DC522853D008DC422841D0FD
:10582000442848D0482840D04D2817D133E0542888
:105830003ED0552832D0562810D13FE0722840D0B3
:1058400006DC642837D068282FD06D2806D122E0E6
:1058500074282DD0752821D076282FD020A5204659
:10586000FAF7C8FD07462846FAF7C4FD0646A01910
:10587000C11908EB0902891E91422BD2BA1EA11C44
:10588000FAF773FE324629462046FAF729FE2078B9
:105890000028B6D11FE000F073FF01E000F078FFB0
:1058A0000546DCE700F034FFFAE700F065FFF7E7B4
:1058B00000F06AFFF4E700F05BFFF1E700F070FF33
:1058C000EEE7094890F82A0010B1074D2A35C6E7DF
:1058D00006A5C4E73C44A4EB0800BDE8F08700003F
:1058E0004552524F52000000ECB3010068747470CE
:1058F000733A2F2F6D6265642E6F72672F64657621
:105900006963652F3F636F64653D40553F766572FF
:1059100073696F6E3D40563F7461726765745F696D
:10592000643D4054000000002DE9F043A3B08846D8
:1059300081461E461746802102A82A9DFAF7B3FE2B
:10594000002002AC03E02154401C7F2802D2295CD5
:105950000029F8D180212046FFF74CFFCDE9004017
:1059600033463A464146484604F0C4FE23B0BDE8FB
:10597000F08370472DE9F0411E4615460C46074658
:1059800005F0E2FA2C4890F8201003290FD0022CE1
:105990000FD004B3012C0AD10168A94207D190F8B5
:1059A0002210A9B300214A1E016082608161BDE816
:1059B000F0810068A842FAD1304605F02DF804467F
:1059C000304605F02BF80646384602F0E7FE03465F
:1059D0002246314617E0384602F0E0FE0328E6D0C2
:1059E000304605F017F88007E1D4384602F0D6FEBD
:1059F0000746304605F010F80446304605F00EF82C
:105A000001463B4622462846BDE8F04104F034B842
:105A100028220A490848FAF7EAFD03F0AFFC0848D3
:105A20008178012903D14178022900D18170BDE834
:105A3000F04103F0ABBC0000F82C0020A0B4010042
:105A40008C0000202DE9F0411D4E0446174696F8C3
:105A500022008846550260B92946404602F05AFEA7
:105A6000032802D0214603F0B1FF96F82200002857
:105A70000FD07068A0420CD8F068A0420BD008D9B3
:105A80003069401C00D134613069A04200D2044624
:105A90003461BDE8F081F0692A461044F061E019F4
:105AA000F06096F8230020B1BDE8F041002004F03A
:105AB00033B841462046BDE8F04103F023BF000063
:105AC000F82C0020F0B518A185B00968049102787F
:105AD000002104AB5C5C944224D0491C0329F9D317
